:04000000E5EF12F026
:1000080000C015F0F2A426D02B4A2C2AFC0ED76E7D
:10001800190ED66E2C50030A02E1E80E2B1803E1E4
:10002800182A2B6A2C6A18503C0A06E1162A186A04
:10003800010E2D6E000E2E6E16503C0A06E1166A51
:10004800172A010E316E000E326E170E175CD8B0EB
:0A005800176AF29415C000F01100C1
:080062000AAE029E000E12001E
:10006A000B840BAE40EF00F0010E036E026A016AC8
:0A007A00006A0A360232FF0E12007F
:0E008400026A016A006A086A036A000E12002E
:100092000B820BAE53EF00F0036802680168006840
:0800A2000A360232FF0E1200C3
:1000AA000CB097EF00F00CA23DEF01F00E6A000EC3
:1000BA000264AEEF00F0F00E0214D8A479EF00F05B
:1000CA00023A01380F0B02260138F00B016E003894
:1000DA000F0B01260038F00B006E08380F0B0026B4
:1000EA000838F00B086E0E84D89002BE92EF00F02A
:1000FA0008360036013602360E2A02BE92EF00F0AA
:10010A0008360036013602360E2A02BE92EF00F099
:10011A0008360036013602360E2A0E50036433EFD3
:10012A0001F0035E0BBC08AE38EF01F0D880800EF8
:10013A0008640030000E002201220222D8A038EF03
:10014A0001F0023201320032034A3DEF01F038EF8A
:10015A0001F001C002F000C001F008C000F0086A16
:10016A00000E0E860264E5EF00F0F00E0214D8A429
:10017A00CDEF00F0023A01380F0B02260138F00BDE
:10018A00016E00380F0B01260038F00B006E0E844A
:10019A00D89002BE92EF00F00036013602360E2ADF
:1001AA0002BE92EF00F00036013602360E2A02BE77
:1001BA0092EF00F00036013602360E2A92EF00F076
:1001CA0001C002F000C001F0006A000E0E960E880F
:1001DA00026412EF01F0F00E0214D8A4FDEF00F051
:1001EA00023A01380F0B02260138F00B016E0E8419
:1001FA00D89002BE92EF00F0013602360E2A02BEF5
:10020A0092EF00F0013602360E2A02BE92EF00F09B
:10021A00013602360E2A92EF00F001C002F0016A9E
:10022A00000E0E86026442EF01F0F00E0214D8A40A
:10023A0021EF01F0023A0E84D89002BE92EF00F04C
:10024A0002360E2A02BE92EF00F002360E2A02BED3
:10025A0092EF00F002360E2A92EF00F0010E0C6EB9
:10026A00FFDE45EF01F0020E0C6EF6DE45EF01F0FF
:10027A00040E0C6E09DF45EF01F0080E0C6EFDDE70
:02028A00120060
:10028C000B800BAE52EF01F0026A0AAEFF0E026E4B
:0C029C00016E006E0A360232FF0E1200E6
:1002A800025006180E6E086A096A0B6A0350076442
:1002B80047EF02F006500A6E068E028E03500B6E50
:1002C8000750036E000E0B6497EF01F00B50075EAA
:1002D800D8B438EF02F0070E076406EF02F0075EA5
:1002E80000C008F001C000F002C001F0026A074E29
:1002F80038EF02F00764DBEF01F0075E00C008F09A
:1003080001C000F0016A074E38EF02F00764B9EF48
:1003180001F0075E00C008F0006A074E38EF02F0EF
:100328000764A0EF01F00AC002F005C001F004C0A4
:1003380000F0086A61EF03F0030E0764ABEF01F009
:10034800075E08380F0B086E074E38EF02F0D8909A
:100358000832074E38EF02F0D8900832074E38EFCF
:1003680002F0D890083238EF02F0030E0764CAEFA3
:1003780001F0075E08380F0B086E0038F00B0826EE
:1003880000380F0B006E074E38EF02F0D89000329D
:100398000832074E38EF02F0D89000320832074E84
:1003A80038EF02F0D8900032083238EF02F0030E2E
:1003B8000764F2EF01F0075E08380F0B086E00388B
:1003C800F00B082600380F0B006E0138F00B0026E2
:1003D80001380F0B016E074E38EF02F0D89001324A
:1003E80000320832074E38EF02F0D890013200325E
:1003F8000832074E38EF02F0D89001320032083246
:1004080038EF02F0030E076423EF02F0075E0838A6
:100418000F0B086E0038F00B082600380F0B006E23
:100428000138F00B002601380F0B016E0238F00B73
:10043800012602380F0B026E074E38EF02F0D890F3
:100448000232013200320832074E38EF02F0D890FB
:100458000232013200320832074E38EF02F0D890EB
:100468000232013200320832096A000E0EAE2CEF59
:1004780003F0081E001E011E021E082A0022012287
:1004880002222CEF03F00750D8A44DEF02F061EFE1
:1004980003F0096A02C00AF0028E068E0750035C58
:1004A800076ED8B41FEF03F0070E0764EDEF02F0F4
:1004B800075E0450096E0550046E0650056E066A04
:1004C800074E1FEF03F0070E0764C2EF02F0075E46
:1004D8000450096E0550046E056A074E1FEF03F0BD
:1004E800070E0764A0EF02F0075E0450096E046A65
:1004F800074E1FEF03F0070E076487EF02F00AC0EC
:1005080002F061EF03F0030E076492EF02F0075E5A
:1005180009380F0B096E074E1FEF03F0D890093208
:10052800074E1FEF03F0D8900932074E1FEF03F074
:10053800D89009321FEF03F0030E0764B1EF02F001
:10054800075E09380F0B096E0438F00B09260438CA
:100558000F0B046E074E1FEF03F0D89004320932D8
:10056800074E1FEF03F0D89004320932074E1FEFF1
:1005780003F0D890043209321FEF03F0030E07642A
:10058800D9EF02F0075E09380F0B096E0438F00B3B
:10059800092604380F0B046E0538F00B04260538BD
:1005A8000F0B056E074E1FEF03F0D890053204328B
:1005B8000932074E1FEF03F0D89005320432093292
:1005C800074E1FEF03F0D8900532043209321FEFAF
:1005D80003F0030E07640AEF03F0075E09380F0BF8
:1005E800096E0438F00B092604380F0B046E053821
:1005F800F00B042605380F0B056E0638F00B0526A0
:1006080006380F0B066E074E1FEF03F0D890063220
:10061800053204320932074E1FEF03F0D890063234
:10062800053204320932074E1FEF03F0D890063224
:10063800053204320932086A000E0EAE2CEF03F0C0
:10064800091E041E051E061E092A0422052206226A
:1006580009500826045000220550012206500222A3
:100668000EBE43EF03F0D8A052EF03F0023201327E
:1006780000320832033E52EF03F05CEF03F0D8B0CB
:1006880057EF03F0000E081E001E011E021E082A66
:100698000022012202220A7E57EF03F0010E0C6E9F
:1006A80000DD63EF03F0020E0C6EFBDC63EF03F07A
:1006B800040E0C6EEADC63EF03F0000E0C6E120001
:0A06C800030E0D6E0D2EFED712007A
:1006D200086A096A000E07620364EEEF03F0025033
:1006E20006180A6E075003267E0ED8A07FEF03F08D
:1006F200035ED8B0F2EF03F083EF03F0035ED8A0FD
:10070200F6EF03F0028E068E02C00EF001C00BF06F
:1007120000C00DF000500402F4CF0CF001500502AD
:10072200F4CF00F0F3CF08F00402F3500C26F4509B
:100732000822000E00220D500502F3500C26F45040
:100742000822000E002202500402F3500826F45040
:10075200002202500502016A000E0122F350002617
:10076200F45001220D500602F3500826F4500022E4
:10077200026A000E012202220B500602F3500026EA
:10078200F4500122000E02220E500602F3500126FE
:10079200F450022202BED6EF03F0083600360136CC
:1007A20002360306D8B4F6EF03F0E9EF03F0D8807F
:1007B200800E08640030000E002201220222D8A01E
:1007C200E9EF03F0023201320032034AF2EF03F0A2
:1007D2000AAE029E000EF8EF03F0010E52DCF8EFB3
:1007E20003F0020E55DCF8EF03F0040E3DDC1200BC
:0607F200067E59DD120035
:1007F8000050086E0150006E0250016E0350026EE8
:10080800036A0B6A0C6A9E0E036E0A6A02AE19EF3F
:1008180004F0081E001E011E021E082AD8B4002A71
:10082800D8B4012AD8B4022A0A8E020E0C6E39DC1A
:020838001200AC
:10083A000B6A0C6A086A0350D8B4A1EF04F002C02C
:10084A000AF0028E9E0E035E03AE91EF04F0036C73
:10085A00080E035CD8A05EEF04F0036E083600C0F1
:10086A0008F001C000F002C001F0026A080E035C41
:10087A00D8A05EEF04F0036E083600C008F001C08D
:10088A0000F0016A080E035CD8A05EEF04F0036E64
:10089A00083600C008F0006A080E035CD8A05EEFB4
:1008AA0004F0036E0836086A0350D8A4D8906AEF99
:1008BA0004F00350D8B46AEF04F0D890023201323F
:1008CA0000320832032E62EF04F00BBC08A07BEF63
:1008DA0004F0D8A07BEF04F0082AD8B4002AD8B4D0
:1008EA00012AD8B4022A02BEA5EF04F00AAEA1EF8B
:1008FA0004F0021E011E001E081E082AD8B4002A8F
:10090A00D8B4012AD8B4022AA1EF04F0026A016A13
:10091A00006A086AA1EF04F00B800BAEABEF04F09B
:10092A00026A0AAEABEF04F0026E016E006E086E48
:10093A000A360232ABEF04F00C6A000EACEF04F098
:10094A00010E0C6E000E9DDCACEF04F0FF0E02509F
:10095A00036E0150026E0050016E0850006E1200C4
:0A096A00AEDE8A88ACDE8A98120027
:04097400000012006D
:080978000B6A0B86FF0E120052
:100980000A6A0350D8A40A800750D8A40A820A50E1
:10099000D8B423EF05F0030AD8B4DCEF04F00AB0B2
:1009A000D7EF04F006AE21EF05F01FEF05F002AE21
:1009B0001FEF05F021EF05F00250800B0A6E029E3A
:1009C0000650800B069E0A18D8B4EDEF04F00A50CA
:1009D000D8B41FEF05F021EF05F00750035CD8B441
:1009E000F7EF04F0D8A013EF05F019EF05F006506B
:1009F000025CD8B401EF05F0D8A013EF05F019EFB1
:100A000005F00550015CD8B40BEF05F0D8A013EF4A
:100A100005F019EF05F00450005CD8B423EF05F0A1
:100A2000D8B019EF05F00A52D8B421EF05F01FEF46
:100A300005F00A52D8B41FEF05F021EF05F0D88079
:0E0A40001200D8901200D880D8841200120044
:100A4E007F0E00016F15016E01C06FF001AC03D077
:0C0A5E008980899202D089908982120060
:100A6A0089988A96B80E00016F11836E79DF120099
:100A7A007F0E00016F15006E00C06FF089988A968C
:100A8A00BF0E001600C06FF0008C00C06FF000C0EF
:060A9A0083FF66DF12007D
:100AA00072C000F0016A026A036AFF0E0016000EAF
:100AB000011600C077F001C078F07F0E005C026E76
:100AC000000E0158036E02C077F003C078F0800E6C
:100AD0000318006E800E005C02E1000E025C21E251
:100AE000046A056A066A076A6FC000F070C001F008
:100AF00071C002F072C003F043DF010ED8B0000EE7
:100B0000006E005209E0000E006E000E016E800EB5
:100B1000026E7F0E036E58D0006A016A026A036A91
:100B200053D000017851000802E17751180809E21A
:100B30006FC000F070C001F071C002F072C003F02D
:100B400043D06FC000F070C001F071C002F072C0FD
:100B500003F073DE51DE00C073F001C074F002C018
:100B600075F003C076F000C004F001C005F002C0CB
:100B700006F003C007F06FC000F070C001F071C054
:100B800002F072C003F0FCDE010ED8B0000E006E61
:100B9000005212E0000E046E000E056E000E066E8E
:100BA0007F0E076E73C000F074C001F075C002F0D4
:100BB00076C003F01EDE08D073C000F074C001F0F0
:0A0BC00075C002F076C003F01200C9
:0E0BCA008A9889888A966FC083FFCADE12005F
:100BD800120E006E000E016E830E0024E16E0F0EE1
:100BE8000120E26EFF0EE66EC1DEC0DE89888A98BB
:100BF8008A868A8865DD83CF6FF08A988A96B6DE02
:100C0800B5DE120E006E000E016E830E0024E16E3A
:0E0C18000F0E0120E26EE66A6FC000F01200BF
:100C26000450000A12E10550000A0FE10650000ABE
:100C36000CE10750000A09E1FF0E006EFF0E016E7F
:100C46007F0E026EFF0E036EA7D0086A096A075070
:100C5600D8B4BEEF06F00350D8B4C2EF06F0025087
:100C660006180A6E028E068E0E6A02C008F001C0D1
:100C76000CF000C00DF004500D5E0550D8A0053CE8
:100C86000C5E0650D8A0063C085E086A0C6A0D6A1F
:100C9600D8A055EF06F0D890023201320032083261
:100CA600010E0E6E0750035ED8A062EF06F07E0EB0
:100CB6000E240326D8B0C7EF06F068EF06F07E0EC6
:100CC6000E240326D8A0CCEF06F0180E0B6E0D36B8
:100CD6000C3608360036013602360E360450005EF3
:100CE6000550D8A0053C015E0650D8A0063C025E21
:100CF60006340E120EA083EF06F00D808EEF06F07E
:100D0600045000260550D8B0053C01260650D8B040
:100D1600062802260D900B2E6AEF06F0B4EF06F0B9
:100D2600D8900036013602360E360450005E055065
:100D3600D8A0053C015E0650D8A0063C025E0634EB
:100D46000E10010B0D26D8B00C2AD8B4082AD8A448
:100D5600B4EF06F008320C320D32032AD8B4C7EFCE
:100D660006F00AAE089E0850026E0C50016E0D5039
:100D7600006ECFEF06F0010EFCDDCFEF06F0020E9F
:100D860042EC00F0CFEF06F0040E49EC00F0CFEF96
:0A0D960006F0080E35EC00F0120024
:100DA00076C000F077C001F0000E000177BFFF0EA3
:100DB000026E036E003600900136023603360036AE
:100DC000009001360236033673510024F66E7451DA
:100DD0000120F76E75510220F86E0900F5CF78F00A
:100DE0000900F5CF79F00900F5CF7AF00900F5CFC9
:100DF0007BF07651771148E06FC000F070C001F0D1
:100E000071C002F072C003F078C004F079C005F040
:100E10007AC006F07BC007F05CDC010E765F000E46
:100E2000775B76C004F077C005F0000E77BFFF0E49
:100E3000066E076E0436049005360636073604360D
:100E4000049005360636073673510424F66E745145
:100E50000520F76E75510620F86E0900F5CF04F0F5
:100E60000900F5CF05F00900F5CF06F00900F5CF30
:100E700007F054EC01F000C078F001C079F002C036
:100E80007AF003C07BF0B5D778C000F079C001F0EC
:0A0E90007AC002F07BC003F01200EC
:100E9A000B6A0A6A096A00500402F4CF09F0F3CF18
:100EAA0008F001500502F4CF0BF0F3CF0AF000501E
:100EBA000502F3500926F4500A22E86A0B2201506F
:100ECA000402F3500926F4500A22E86A0B2208C0E9
:100EDA0000F009C001F00AC002F00BC003F01200D2
:100EEA00000E0001675D0AE367517F0807E3000E01
:100EFA00685D04E368513F0801E301D04AD067C046
:100F0A006FF0A0DD68C06FF06F336F9F6F336F9F14
:100F1A006F336F9FA5DD67C06FF0AADD58DE00C092
:100F2A006BF055DE00C06BF068C06FF06F336F9FD7
:100F3A006F336F9F6F336F9F93DD67C06FF098DDDC
:100F4A00070E6815006E00C060F000C001F0010EC7
:100F5A00006E015004E000360090FF0FFBD700C07E
:100F6A0060F0001C6A6F09D06A516B170FD060518C
:100F7A006B130CD060516B1B09D06951000AF4E065
:100F8A006951010AF4E06951020AF4E06BC06FF09A
:040F9A0017DE12004C
:100F9E000C6A0E6A0250D8A4E8EF07F001C002F006
:100FAE0000C001F0006A0E860250D8A4E8EF07F0E8
:100FBE0001C002F0016A0E960E880250D8B4FAEF04
:100FCE0007F00E50035ED8A4D8A000EF08F0D8901A
:100FDE0002BE06EF08F0003601360236032EEFEFA2
:100FEE0007F000EF08F0010E0C6E42EC00F00AEF75
:100FFE0008F0020E0C6E35EC00F00AEF08F0040E4D
:08100E000C6E31EC00F0120041
:101016000001606B046A056A066A076A67C000F029
:1010260068C001F069C002F06AC003F0A6DC010ED8
:10103600D8B0000E006E005203E0697F010E606FAB
:1010460067C000F068C001F069C002F06AC003F032
:10105600830E046EF90E056E220E066E7C0E076E6A
:1010660069EC03F000C067F001C068F002C069F0E7
:1010760003C06AF000C06FF001C070F002C071F0EA
:1010860003C072F00ADD00C004F001C005F002C022
:1010960006F003C007F067C000F068C001F069C041
:1010A60002F06AC003F0F9EC03F0000E046E000EC5
:1010B600056E000E066E810E076E69EC03F000C029
:1010C60067F001C068F002C069F003C06AF000C0B2
:1010D60004F001C005F002C006F003C007F0000EE0
:1010E600006E000E016E000E026E800E036E45DC71
:1010F600010ED8B0000E006E005220E0000E046E05
:10110600000E056E000E066E800E076E67C000F0BC
:1011160068C001F069C002F06AC003F0F9EC03F0A0
:1011260000C067F001C068F002C069F003C06AF051
:1011360000016053010ED8A4000E606F67C004F072
:1011460068C005F069C006F06AC007F0000E006EC0
:10115600000E016E000E026E7F0E036E0EDC010E97
:10116600D8B0000E006E00521AE067C004F068C0E6
:1011760005F069C006F06AC007F0000E006E000EAA
:10118600016E000E026E800E036EF9EC03F000C0D5
:1011960067F001C068F002C069F003C06AF00001A0
:1011A60067C000F068C001F069C002F06AC003F0D1
:1011B60067C004F068C005F069C006F06AC007F0B1
:1011C60069EC03F000C06BF001C06CF002C06DF07A
:1011D60003C06EF000C06FF001C070F002C071F085
:1011E60003C072F0A50E736F2B0E746F000E756F31
:1011F600040E766F000E776FD0DD67C004F068C00E
:1012060005F069C006F06AC007F069EC03F000C09B
:1012160067F001C068F002C069F003C06AF06BC0F5
:101226006FF06CC070F06DC071F06EC072F0B90EE8
:10123600736F2B0E746F000E756F030E766F000EB4
:10124600776FABDD00C004F001C005F002C006F008
:1012560003C007F067C000F068C001F069C002F083
:101266006AC003F0DDDC00C067F001C068F002C0B0
:1012760069F003C06AF0000160530DE0000E6719C3
:10128600006E000E6819016E800E6919026E000E5E
:101296006A19036E08D067C000F068C001F069C023
:0812A60002F06AC003F012001F
:1012AE000134083609360450085E0550D8A0053CB6
:1012BE00095E003601360F0E0C6E01340836093603
:1012CE00045000A006D0085E0550D8A0053C095E6B
:1012DE0005D008260550D8B0053C09260036013643
:1012EE000C2EEBD700B006D0045008260550D8B00F
:0812FE00053C09260000120066
:101306000B6A0C6A0A6A0350D8B4CDEF09F0028E54
:101316008E0E035E03BE95EF09F0D8B495EF09F083
:10132600D1EF09F0036C080E035CD8A0ACEF09F00E
:10133600036E013602C001F0026A080E035CD8A0F3
:10134600ACEF09F00136016A0350D8A4D890B6EF85
:1013560009F00350D8B4B6EF09F0D8900232013242
:10136600032EB0EF09F00BBC01A0C3EF09F0D8A023
:10137600C3EF09F0012AD8B4022A02BEE0EF09F051
:101386000AAEE6EF09F0021E011E012AD8B4022AAF
:10139600E6EF09F0026A016AE6EF09F00B800BAE90
:1013A600EAEF09F0026A0AAEEAEF09F0FF0E026EF2
:1013B600016E0A360232EAEF09F0010E0C6E46ECB7
:1013C60001F0ECEF09F0000E0C6EECEF09F0FF0EE9
:0C13D6000C6E0150006E0250016E1200FF
:1013E2000050086E0150006E016A026A036A0B6ABD
:1013F2000C6A960E036E0A6A00C001F008C000F083
:08140200086A026ACBDD12004A
:10140A005550070801E292D03D50535C006E3EC031
:10141A0001F0000E015641C004F0000E056E38DDE1
:10142A0000C05BF001C05CF054C06FF03DEC05F009
:10143A0055C06FF035EC05F0576A4150575C52E2DF
:10144A0054507F0801E272D054C06FF027EC05F0C7
:10145A0055C06FF035EC05F054C06FF03DEC05F067
:10146A00ECEC05F000C058F0ECEC05F000C058F0C8
:10147A0054C06FF027EC05F055C06FF035EC05F05D
:10148A0054C06FF03DEC05F05B503924F66E5C50A9
:10149A003A20F76E000E5CBEFF0E3B20F86E090084
:1014AA00F5CF00F000C059F05B4A5C2A001C5A6E66
:1014BA0009D05AC058F00FD059C058F00CD0595022
:1014CA00581A09D05650000AF4E05650010AF4E0BE
:1014DA005650020AF4E058C06FF0E5EC05F0542AC1
:1014EA00572AABD754C06FF027EC05F055C06FF000
:1014FA0035EC05F054C06FF03DEC05F0FF0E596E67
:10150A005A6A0ED059C058F059C06FF0E5EC05F090
:10151A000DD05AC058F05AC06FF0E5EC05F006D06D
:0E152A005650000AEFE05650010AF3E012009E
:10153800000E581802E1000E571808E153C067F072
:1015480055C068F059C069F0CCDCD5D000015E6A9E
:101558005F6A5350555C616F54505658626F57C05C
:101568005CF058C05DF057C000F058C001F000367C
:101578000090013600C05AF001C05BF0005003082B
:101588005A6E01C05BF0000E5B56010E5C24016EC2
:10159800000E5D20026E800E5F18006E800E02182D
:1015A800005C02E101505E5CD8B0A5D000015E503D
:1015B8005324676F5C505524686F59C069F091DCFB
:1015C8005E505324676F5C50555C686F59C069F072
:1015D80088DC800E006E800E5F18005C02E15E50B1
:1015E800000812E25E50535C676F5C505524686FC8
:1015F80059C069F076DC5E50535C676F5C50555C8F
:10160800686F59C069F06DDC5F505D1802E15C508D
:101618005E1836E000015C505524676F6151675FC2
:101628005E505524686F59C069F05BDC5C50555CAE
:10163800676F6151675F5E505524686F59C069F0E4
:1016480050DC800E006E800E5F18005C02E15E5078
:10165800000816E25C505524676F6151675F5E5061
:10166800555C686F59C069F03CDC5C50555C676F2D
:101678006151675F5E50555C686F59C069F031DC35
:10168800800E5B18006E800E005C02E1000E5A5C52
:1016980013E25EC000F05FC001F000360090013632
:1016A800003600900136060E0026000E012200507A
:1016B8005A2601505B221CD05C505E5C036E5D5064
:1016C8005F58046E03C000F004C001F000360090BB
:1016D80001360036009001360A0E0026000E01225F
:1016E80000505A2601505B22010E5C5E000E5D5AC6
:0816F8005E4A5F2A4AD7120086
:101700000B6A0350D8B4C6EF0BF002500A6E028E7B
:101710008E0E035E03AECAEF0BF0036C080E035C83
:10172000D8A0A5EF0BF0036E013602C001F0026AEB
:10173000080E035CD8A0A5EF0BF0036E0136016A1A
:101740000350D8A4D890AFEF0BF00350D8B4AFEF4C
:101750000BF0D89002320132032EA9EF0BF00BBC34
:1017600001A0BCEF0BF0D8A0BCEF0BF0012AD8B45D
:10177000022A02BED9EF0BF00AAEDFEF0BF0021E19
:10178000011E012AD8B4022ADFEF0BF0026A016AB7
:10179000DFEF0BF00B800BAEE3EF0BF0026A0AAE4B
:1017A000E3EF0BF0FF0E026E016E0A360232E3EF3A
:1017B0000BF0010E0C6E46EC01F0E5EF0BF0000EA5
:1017C0000C6EE5EF0BF0FF0E0C6E0150006E025038
:0417D000016E120094
:1017D40053C004F054C005F055C006F056C007F0DD
:1017E400DB0E006E0F0E016E490E026E800E036E4C
:1017F400C0EC04F0010ED8B0000E006E00521DE0E3
:10180400E40E046ECB0E056E160E066E810E076E88
:1018140053C000F054C001F055C002F056C003F0AC
:10182400F9EC03F000C067F001C068F002C069F091
:1018340003C06AF00BEC08F01CD053C000F054C095
:1018440001F055C002F056C003F0DB0E046E0F0E1B
:10185400056E490E066E7F0E076E54EC01F000C053
:1018640067F001C068F002C069F003C06AF00BECD5
:0418740008F0120066
:1018780000C008F00150006E016A026A036A0B6A30
:101888000C6A016A026A036A960E036E0A6A00AE5F
:1018980054EF0CF0081E001E082AD8B4002A0A8E3D
:1018A80000C001F008C000F0086A026ACFEC07F037
:0218B80012001C
:1018BA000450000A08E10550000A05E1FF0E006E17
:1018CA007F0E016E57D00D6A096A086A015000102E
:1018DA00D8B4000C015005180A6E0ABE0D1E0B6A18
:1018EA0005AE05D0041E051E042AD8B4052A01AE89
:1018FA0005D0001E011E002AD8B4012A0150051085
:10190A000A6E0ABE10D0CEDC0BB020D00DAE000C91
:10191A00001E011E002AD8B4012A081E091E082A20
:10192A00D8B4092A000C05AE0DD001BE07D001506B
:10193A00096E0050086E016A006AE8D7016A006AF7
:10194A00002A000C011E001E0B2ADDD7082AD8B473
:10195A00092A0450085CD8A4D9D70550095CD8A430
:10196A00D5D7096A086A002AD8B4012A01AECED7A7
:06197A000000FF0C12004A
:10198000800E5418006E800E005C02E1000E535C65
:1019900002E2536A546A800E006E800E5418005C96
:1019A00002E153507F0804E27F0E536E000E546E26
:1019B000800E5818006E800E005C02E1000E575C2D
:1019C00002E2576A586A800E006E800E5818005C5A
:1019D00002E157507F0804E27F0E576E000E586EEA
:1019E000800E5618006E800E005C02E1000E555C01
:1019F00002E2556A566A800E006E800E5618005C30
:101A000002E155503F0804E23F0E556E000E566E3F
:101A1000800E5A18006E800E005C02E1000E595CC8
:101A200002E2596A5A6A800E006E800E5A18005CF3
:101A300002E159503F0804E23F0E596E000E5A6E03
:101A40005350575C016E54505858026E01C05CF000
:101A500002C05DF05550595C5E6E56505A585F6E2C
:101A6000800E0218006E800E005C02E1000E015C28
:101A70000CE25C5000085C6E5D50000E5D56FF0E7F
:101A80000001616FFF0E626F05D00001010E616FF2
:101A9000000E626F800E5F18006E800E005C02E127
:101AA000000E5E5C0BE25E5000085E6E5F50000E42
:101AB0005F56FF0E636FFF0E646F04D0010E636FFD
:101AC000000E646F5C365C905D365E365E905F360D
:101AD00053C067F055C068F05BC069F075EC07F063
:101AE000800E5F18006E800E5D18005C02E15C5095
:101AF0005E5C3EE25CC000F05DC001F0013200328D
:101B0000019E01BC018E00505E5C656F01505F5804
:101B1000666F5450581802E15750531828E0800E51
:101B20006619006E800E005C02E1000E655D08E340
:101B300063515526645156225C50655F5D50665B6B
:101B400061515324006E62515420016E00C053F065
:101B500001C054F05E5065275F50662300C067F0F7
:101B600055C068F05BC069F075EC07F0D2D73DD086
:101B70005EC000F05FC001F001320032019E01BC86
:101B8000018E00505C5C656F01505D58666F565069
:101B90005A1802E15950551828E0800E6619006E57
:101BA000800E005C02E1000E655D08E36151532682
:101BB000625154225E50655F5F50665B63515524ED
:101BC000006E64515620016E00C055F001C056F001
:101BD0005C5065275D50662353C067F000C068F015
:0C1BE0005BC069F075EC07F0D2D7120072
:101BEC000900F5CFE6FF0006FBE10106F9E1120062
:101BFC00426A3F6A406A939A93989298939692900D
:101C0C0092928A9A120E006E000E016E830E0024C0
:101C1C00E16E0F0E0120E26EE66A89988A96899031
:101C2C0089828A8A3F0E836EB5EC04F0C00E836EF7
:101C3C00B5EC04F0898089923F0E836EB5EC04F00C
:0A1C4C00C00E836EB5EC04F0120028
:101C560089908982476A4750070810E347C06FF0AA
:101C660035EC05F0466A46503F0806E345C06FF07E
:101C7600E5EC05F0462AF7D7472AEDD78992898001
:101C8600476A4750070810E347C06FF035EC05F088
:101C9600466A46503F0806E345C06FF0E5EC05F09E
:0A1CA600462AF7D7472AEDD71200AF
:101CB0004A6A4250000A0EE1050E416E070E3C6E64
:101CC000A20E396E290E3A6E000E3B6E200E3D6E4E
:101CD000000E3E6E4A504524E96E000E4620EA6E24
:101CE000EE5217E04A504524E96E000E4620EA6E97
:101CF000EECF53F047C054F048C055F049C056F0FD
:101D000005EC0AF04150010F006E005047264A2AA8
:041D1000E1D7120005
:101D1400086A080E0C6E003408360450085ED8B009
:0E1D240002D00826D89000360C2EF5D71200FB
:101D3200496A4A6A4B6A4C6A45C000F046C001F0E3
:101D4200060E046E000E056E4DEC07F0F1EC09F084
:101D5200E10E046E2E0E056E650E066E840E076E83
:101D620013EC06F000C049F001C04AF002C04BF08B
:101D720003C04CF000C067F001C068F002C069F017
:101D820003C06AF00BEC08F0000E046E000E056E44
:101D9200380E066E830E076E69EC03F0000E046EB9
:101DA200000E056E400E066E850E076E54EC01F0B5
:101DB20083EC09F000C047F001C048F049C053F07D
:101DC2004AC054F04BC055F04CC056F002DD000E34
:101DD200046E000E056E380E066E830E076E69ECF9
:101DE20003F000C004F001C005F002C006F003C019
:101DF20007F0000E006E000E016E000E026E840EE1
:101E0200036EF9EC03F083EC09F0600E536E000EE2
:101E1200546E200E556E000E566E47C057F048C0E5
:101E220058F000C059F001C05AF05B6AA8DD1200F8
:101E32004D6A4E6A4F6A506A45C000F046C001F0D2
:101E42001E0E046E000E056E4DEC07F000C051F040
:101E520001C052F047C000F048C001F0060E046E07
:101E6200000E056E4DEC07F00C0E046E000E056EB2
:101E720023DD5150002652500122FDDC00C04DF0FE
:101E820001C04EF002C04FF003C050F0E10E046EEC
:101E92002E0E056E650E066E840E076E13EC06F0AE
:101EA20000C04DF001C04EF002C04FF003C050F030
:101EB20000C067F001C068F002C069F003C06AF0B8
:101EC2000BEC08F0000E046E000E056E700E066E2E
:101ED200820E076E69EC03F0000E046E000E056EB2
:101EE200400E066E850E076E54EC01F083EC09F08D
:101EF20000C04BF001C04CF04DC053F04EC054F046
:101F02004FC055F050C056F064DC000E046E000E57
:101F1200056E700E066E820E076E69EC03F000C04D
:101F220004F001C005F002C006F003C007F0000E85
:101F3200006E000E016E000E026E840E036EF9EC4E
:101F420003F083EC09F0600E536E000E546E200E07
:101F5200556E000E566E4BC057F04CC058F000C084
:101F620059F001C05AF0010E5B6E09DD47C000F066
:101F720048C001F0060E046E000E056E4DEC07F02F
:101F8200F1EC09F0E10E046E2E0E056E650E066E82
:101F9200840E076E13EC06F000C04DF001C04EF047
:101FA20002C04FF003C050F000C067F001C068F0FB
:101FB20002C069F003C06AF00BEC08F0000E046E78
:101FC200000E056E200E066E830E076E69EC03F09E
:101FD200000E046E000E056E400E066E850E076E34
:101FE20054EC01F083EC09F000C04BF001C04CF05E
:101FF2004DC053F04EC054F04FC055F050C056F093
:10200200EAEC0BF0000E046E000E056E200E066E5A
:10201200830E076E69EC03F000C004F001C005F006
:1020220002C006F003C007F0000E006E000E016E43
:10203200000E026E840E036EF9EC03F083EC09F0DD
:10204200600E536E000E546E200E556E000E566ECC
:102052004BC057F04CC058F000C059F001C05AF0C4
:10206200010E5B6E8CDC49C000F04AC001F0060E26
:10207200046E000E056E4DEC07F0F1EC09F0E10E76
:10208200046E2E0E056E650E066E840E076E13EC40
:1020920006F000C04DF001C04EF002C04FF003C088
:1020A20050F000C067F001C068F002C069F003C0E0
:1020B2006AF00BEC08F0000E046E000E056E380E8E
:1020C200066E830E076E69EC03F0000E046E000EBE
:1020D200056E400E066E850E076E54EC01F083EC21
:1020E20009F000C04BF001C04CF04DC053F04EC09F
:1020F20054F04FC055F050C056F0EAEC0BF0000E11
:10210200046E000E056E380E066E830E076E69ECC5
:1021120003F000C004F001C005F002C006F003C0E5
:1021220007F0000E006E000E016E000E026E840EAD
:10213200036EF9EC03F083EC09F0600E536E000EAF
:10214200546E200E556E000E566E4BC057F04CC0AA
:1021520058F000C059F001C05AF0010E5B6E0FDC5E
:02216200120069
:10216400880ED56EFC0ED76E170ED66EF28EF28ADE
:04217400F2941200CF
:102178004F6A506A600E536E000E546E200E556EF4
:10218800000E566E1E0E576E000E586E010E596EDA
:102198009CEC0AF0600E536E000E546E200E556EC5
:1021A800000E566E020E576E000E586E010E596ED6
:1021B8009CEC0AF04F6A506A800E5018006E800E30
:1021C800010A005C02E1680E4F5CD8B0D5D04FC060
:1021D80000F050C001F03CEC0CF000C045F001C02C
:1021E80046F002C047F003C048F0E10E046E2E0E20
:1021F800056E650E066E840E076E13EC06F000C0C1
:1022080045F001C046F002C047F003C048F000C0E6
:1022180067F001C068F002C069F003C06AF00BEC17
:1022280008F0000E046E000E056E700E066E830E2A
:10223800076E69EC03F0000E046E000E056E400E8A
:10224800066E850E076E54EC01F080EC0BF000C0B2
:1022580049F001C04AF045C053F046C054F047C0A9
:1022680055F048C056F0EAEC0BF0000E046E000E74
:10227800056E700E066E830E076E69EC03F000C0E3
:1022880004F001C005F002C006F003C007F0000E1C
:10229800006E000E016E000E026E840E036EF9ECE5
:1022A80003F080EC0BF000C04DF001C04EF045C0CB
:1022B80067F046C068F047C069F048C06AF00BECA8
:1022C80008F0000E046E000E056E480E066E830EB2
:1022D800076E69EC03F0000E046E000E056E400EEA
:1022E800066E850E076E54EC01F080EC0BF000C012
:1022F8004BF001C04CF045C053F046C054F047C005
:1023080055F048C056F0EAEC0BF0000E046E000ED3
:10231800056E480E066E830E076E69EC03F000C06A
:1023280004F001C005F002C006F003C007F0000E7B
:10233800006E000E016E000E026E840E036EF9EC44
:1023480003F080EC0BF049C053F04AC054F04DC084
:1023580055F04EC056F04BC057F04CC058F000C076
:1023680059F001C05AF0010E5B6EC0EC0CF01E0E65
:0A2378004F26000E502220D712005D
:102382004B6A4C6A4D6A4E6A45C000F046C001F085
:102392001E0E046E000E056E4DEC07F000C04FF0ED
:1023A20001C050F047C000F048C001F0060E046EB4
:1023B200000E056E4DEC07F00C0E046E000E056E5D
:1023C2005DEC0CF04F500026505001223CEC0CF01A
:1023D20000C04BF001C04CF002C04DF003C04EF003
:1023E200E10E046E2E0E056E650E066E840E076EED
:1023F20013EC06F000C04BF001C04CF002C04DF0EF
:1024020003C04EF000C067F001C068F002C069F07E
:1024120003C06AF00BEC08F0000E046E000E056EAD
:10242200700E066E820E076E69EC03F0000E046EEB
:10243200000E056E400E066E850E076E54EC01F01E
:1024420083EC09F000C049F001C04AF04BC053F0E0
:102452004CC054F04DC055F04EC056F0EAEC0BF0B3
:10246200000E046E000E056E700E066E820E076E72
:1024720069EC03F000C004F001C005F002C006F0F0
:1024820003C007F0000E006E000E016E000E026E19
:10249200840E036EF9EC03F083EC09F0600E536EC8
:1024A200000E546E200E556E000E566E49C057F047
:1024B2004AC058F000C059F001C05AF05B6AC0EC43
:0424C2000CF0120008
:1024C600496A4A6A4B6A4C6A45C000F046C001F048
:1024D600060E046E000E056E4DEC07F0F1EC09F0E9
:1024E600E10E046E2E0E056E650E066E840E076EE8
:1024F60013EC06F000C049F001C04AF002C04BF0F0
:1025060003C04CF000C067F001C068F002C069F07B
:1025160003C06AF00BEC08F0000E046E000E056EA8
:10252600200E066E830E076E69EC03F0000E046E35
:10253600000E056E400E066E850E076E54EC01F019
:1025460083EC09F000C047F001C048F049C053F0E1
:102556004AC054F04BC055F04CC056F0EAEC0BF0B4
:10256600000E046E000E056E200E066E830E076EBC
:1025760069EC03F000C004F001C005F002C006F0EB
:1025860003C007F0000E006E000E016E000E026E14
:10259600840E036EF9EC03F083EC09F0600E536EC3
:1025A600000E546E200E556E000E566E47C057F044
:1025B60048C058F000C059F001C05AF05B6AC0EC40
:0425C6000CF0120003
:1025CA00E5EC15F00F013B6B3A6BFF0E956EFEECD6
:1025DA000DF0456A2BEC0EF01F0E456E000E466E8E
:1025EA000C0E476E020E486E010E496E58EC0EF044
:1025FA001DC045F01EC046F00C0E476E030E486E15
:10260A00010E496E58EC0EF0000E261802E1000E7B
:10261A00251828E1020E0B6E450E0C6EA90E0D6EE2
:10262A000D2EFED70C2EFCD70B2EFAD70000000079
:10263A001DC045F01EC046F00C0E476E030E486ED4
:10264A00020E496E58EC0EF0020E0B6E450E0C6E21
:10265A00A90E0D6E0D2EFED70C2EFCD70B2EFAD717
:10266A0000000000290E456E000E466E180E476ED9
:10267A00030E486E010E496E58EC0EF027C045F065
:10268A0028C046F01D0E476E030E486E010E496EB5
:10269A0058EC0EF0000E261802E1010E251828E16A
:1026AA00020E0B6E450E0C6EA90E0D6E0D2EFED788
:1026BA000C2EFCD70B2EFAD70000000027C045F0DD
:1026CA0028C046F01D0E476E030E486E020E496E74
:1026DA0058EC0EF0020E0B6E450E0C6EA90E0D6E26
:1026EA000D2EFED70C2EFCD70B2EFAD700000000B9
:1026FA0082A25ED0000E261802E1000E251829E1FA
:10270A00172A0A0E046E17C000F08AEC0EF01DC0DC
:10271A00E1FF1EC0E2FF300E0024E66E010E1D240A
:10272A00436E000E1E20446E0A0E046E17C000F09F
:10273A008AEC0EF008C000F0300E002643C0E1FF1C
:10274A0044C0E2FF00C0E6FF170E175C02E3FF0E6B
:10275A00176E000E261802E1010E251829E1162A25
:10276A000A0E046E16C000F08AEC0EF027C0E1FFD4
:10277A0028C0E2FF300E0024E66E010E2724436EC5
:10278A00000E2820446E0A0E046E16C000F08AEC71
:10279A000EF008C000F0300E002643C0E1FF44C02E
:1027AA00E2FF00C0E6FF3B0E165C02E3FF0E166E68
:1027BA0082A018D0000E261802E1000E251812E198
:1027CA00010E256E000E266E020E0B6E450E0C6E65
:1027DA00A90E0D6E0D2EFED70C2EFCD70B2EFAD796
:1027EA000000000082A016D0000E261802E1010E99
:1027FA00251810E1256A266A020E0B6E450E0C6E2C
:10280A00A90E0D6E0D2EFED70C2EFCD70B2EFAD765
:10281A000000000082A404D0020E256E000E266E6F
:10282A00000E261802E1020E2518D8A4B3D09FDCA8
:10283A001DC045F01EC046F00C0E476E030E486ED2
:10284A00010E496E58EC0EF027C045F028C046F03C
:10285A001D0E476E030E486E010E496E58EC0EF0BF
:10286A007CDC17C045F0000E466E16C047F0000E1D
:10287A00486E18C049F0000E4A6E19EC0FF00A0EA5
:10288A00046E17C000F08AEC0EF01DC0E1FF1EC0F6
:10289A00E2FF300E0024E66E010E1D24436E000E88
:1028AA001E20446E0A0E046E17C000F08AEC0EF069
:1028BA0008C000F0300E002643C0E1FF44C0E2FF2A
:1028CA0000C0E6FF0A0E046E16C000F08AEC0EF095
:1028DA0027C0E1FF28C0E2FF300E0024E66E010E99
:1028EA002724436E000E2820446E0A0E046E16C07A
:1028FA0000F08AEC0EF008C000F0300E002643C04B
:10290A00E1FF44C0E2FF00C0E6FF18C01BF0000E62
:10291A001C6E17C019F0000E1A6E16C02FF0000EAA
:10292A00306E010E1B5E000E1C5A1BC045F01CC007
:10293A0046F099EC0EF02D502E1011E02D6A2E6AF9
:10294A00010E2F5E000E305A2FC045F030C046F0FF
:10295A00B5DD3B0E456E000E466E99EC0EF0315019
:10296A00321018E0316A326A010E195E000E1A5AE4
:10297A0019C045F01AC046F0010E2F5E000E305AFB
:10298A002FC047F030C048F0F7DC3B0E456E000E12
:08299A00466E94DD21D6FFD743
:102BCA0010EE16F0230E006E010E016E820EF66EE6
:0E2BDA002B0EF76E000EF86EF6EC0DF01200EA
:1029A200000000000000005F0000000700070014A4
:1029B2007F147F14242A7F2A122313086462364963
:1029C2005522500005030000001C22410000412254
:1029D2001C00082A1C2A0808083E0808005030007B
:1029E200000808080808003030000020100804021F
:1029F2003E5149453E00427F4000426151494621D5
:102A020041454B311814127F1027454545393C4A40
:102A12004949300171090503364949493606494990
:102A2200291E003636000000563600000008142227
:102A3200411414141414412214080002015109060D
:102A4200324979413E7E1111117E7F494949363E14
:102A5200414141227F4141221C7F494949417F092D
:102A62000901013E414151327F0808087F00417F40
:102A720041002040413F017F081422417F404040F5
:102A8200407F0204027F7F0408107F3E4141413EA5
:102A92007F090909063E4151215E7F0919294646EF
:102AA2004949493101017F01013F4040403F1F2018
:102AB20040201F7F2018207F6314081463030478CA
:102AC2000403615149454300007F4141020408105B
:102AD2002041417F00000402010204404040404086
:102AE200000102040020545454787F48444438388A
:102AF20044444420384444487F3854545418087E8F
:102B0200090102081454543C7F0804047800447DEF
:102B120040002040443D00007F10284400417F4097
:102B2200007C041804787C0804047838444444384F
:102B32007C14141408081414187C7C080404084833
:102B420054545420043F4440203C4040207C1C20EC
:102B520040201C3C4030403C44281028440C50503B
:102B6200503C4464544C44000836410000007F004D
:102B720000004136080008082A1C08081C2A080818
:012B82000052
:012B83000051
:012B84000050
:022B850000004E
:022B870000004C
:022B8900360014
:062B8B00436C6F636B0058
:022B9100000042
:022B930033000D
:022B95003A0004
:022B970000003C
:022B990000003A
:022B9B00000038
:022B9D00000036
:032B9F00303000D3
:032BA200303000D0
:102BA500ECF34A903595958F17C15C8BFDDBED866F
:042BB50072B3338044
:102BB9002B3401907F9D308BE7FF59850000007F02
:020000040030CA
:0D000100231F3CFFBF81FF0FC00FE00F4029
:00000001FF
